:020000040800F2
:100000006806002029020008BD070008AD050008A9
:10001000A9060008DB020008E90C00080000000047
:10002000000000000000000000000000E5090008DA
:10003000DF02000800000000E90800083D0B00088E
:10004000430200084302000843020008430200087C
:100050004302000843020008E102000843020008CE
:10006000FD020008190300083503000843020008D8
:10007000430200084302000843020008430200084C
:10008000430200084302000843020008430200083C
:10009000430200084302000843020008430200082C
:1000A000430200084302000843020008430200081C
:1000B000430200084302000843020008430200080C
:1000C00043020008430200084302000843020008FC
:1000D00043020008430200084302000843020008EC
:1000E00043020008430200084302000843020008DC
:1000F00043020008430200084302000843020008CC
:1001000043020008430200084302000843020008BB
:1001100043020008430200084302000843020008AB
:10012000430200084302000843020008430200089B
:10013000430200084302000843020008430200088B
:10014000430200084302000843020008430200087B
:10015000430200084302000843020008430200086B
:10016000430200084302000843020008430200085B
:10017000430200084302000843020008430200084B
:10018000430200084302000800F002F800F03CF8C7
:100190000AA090E8000C82448344AAF10107DA45E2
:1001A00001D100F031F8AFF2090EBAE80F0013F0F8
:1001B000010F18BFFB1A43F0010318473C0C000065
:1001C0005C0C0000103A24BF78C878C1FAD85207F6
:1001D00024BF30C830C144BF04680C6070470000C1
:1001E0000023002400250026103A28BF78C1FBD840
:1001F000520728BF30C148BF0B6070471FB500F0E1
:10020000F5FD1FBD10B510BD00F031F81146FFF728
:10021000F5FF00F0DDFD00F04FF803B4FFF7F2FF4B
:1002200003BC00F053F80000094880470948004724
:10023000FEE7FEE7FEE7FEE7FEE7FEE7FEE7FEE796
:10024000FEE7FEE704480549054A064B70470000F3
:10025000410B0008890100086800002068060020A2
:10026000680200206802002070477047704775469A
:1002700000F028F8AE4605006946534620F0070016
:10028000854618B020B5FFF7DDFFBDE820404FF0F0
:1002900000064FF000074FF000084FF0000B21F070
:1002A0000701AC46ACE8C009ACE8C009ACE8C0093D
:1002B000ACE8C0098D4670470446AFF30080204685
:1002C000FFF7ABFF004870470800002001491820E5
:1002D000ABBEFEE726000200704700BFFEE7704796
:1002E00010B5012000F036F828B1012000F02CF8FC
:1002F00001200149086010BD0400002010B5042051
:1003000000F028F828B1042000F01EF8022001496E
:10031000086010BD0400002010B5082000F01AF895
:1003200028B1082000F010F803200149086010BD32
:100330000400002010B5102000F00CF810B11020BF
:1003400000F002F810BD000001490860704700008D
:10035000143C014001460020034A12680A400AB1D9
:10036000012000E000207047143C01400021234997
:100370008279002A3AD00A46126803689A430B46EB
:100380001A600A1D126803689A430B1D1A600279ED
:1003900011440A6803681A430A60184A083212684E
:1003A00003689A43154B08331A601A1D12680368D4
:1003B0009A43124B0C331A604279102A0ED11A1F3D
:1003C000126803681A430D4B08331A601A1D12682D
:1003D00003681A43094B0C331A600DE00749427950
:1003E00011440A6803681A430A6005E0027911445F
:1003F0000A6803689A430A6070470000003C0140A5
:100400000EB50121880300F0DDFA00F01FF900218C
:10041000084600F0E9FA0221042000F0E5FA032181
:10042000042000F0E1FA0421084600F0DDFA012082
:1004300001908DF80A0000208DF808000C208DF83E
:10044000090001A8FFF792FF0420019001A8FFF71F
:100450008DFF0820019001A8FFF788FF1020019070
:1004600001A8FFF783FF06208DF8000001208DF81A
:10047000030000208DF8010001208DF8020068467D
:1004800000F09EF908208DF8000001208DF8010091
:1004900002208DF80200684600F092F909208DF8DC
:1004A000000002208DF8010003208DF8020068464C
:1004B00000F086F90A208DF8000003208DF8010075
:1004C00004208DF80200684600F07AF90EBDF0B500
:1004D0000A4600210023002400BF3DE0012505FA63
:1004E00001F3156805EA03049C4234D105684F0006
:1004F0000326BE40B543056015794E00B540066839
:10050000354305601579012D02D01579022D16D1DC
:1005100085684F000326BE40B543856055794E007F
:10052000B540866835438560456801268E40B543F1
:100530004560456896798E40B6B235434560C568DA
:100540004F000326BE40B543C560D5794E00B54087
:10055000C6683543C560491C1029BFD3F0BDF0B54E
:10056000002300244D07ED0E02FA05F3CE1000F132
:10057000200555F826504E07F70E0F26BE40B5430E
:10058000CF1000F1200646F82750CE1000F12005CC
:1005900055F8265045EA0304CE1000F1200545F831
:1005A0002640F0BD418370470183704700BFFEE7DE
:1005B0001CB50121302000F0E5F901208DF8040080
:1005C0004FF4C060009000208DF8060001208DF8E7
:1005D000070000208DF8050069460A48FFF777FFFD
:1005E0004FF4C040009069460748FFF770FF4FF492
:1005F000C0610448FFF7D8FF4FF4C0410248FFF73D
:10060000D3FF1CBD00140240001002401CB50120A5
:100610008DF804000002009000208DF806000120F3
:100620008DF8070000208DF805000121202000F042
:10063000A9F969460448FFF74AFF4FF48071024860
:10064000FFF7B0FF1CBD0000001402401FB50020E2
:100650008DF80C000120029000208DF80E00012082
:100660008DF80F0000208DF80D008DF804001C207F
:10067000009000208DF8060001208DF80700002072
:100680008DF805000121112000F07CF902A9044831
:10069000FFF71DFF69460348FFF719FF1FBD000064
:1006A000000002400010024000BFFEE770B50546A2
:1006B00000242868012836D1FFF77AFF0F2000F0C8
:1006C000E7F8082412E0E0B200F0B6F801214FF498
:1006D000FA7000F00BFB0F2000F0DAF80121642023
:1006E00000F004FB204604EBD0714C10012C02DD1D
:1006F00028680128E7D001240FE0E0B200F09CF860
:1007000001214FF4FA7000F0F1FA0F2000F0C0F868
:100710000121642000F0EAFA6400082C48DC286813
:100720000128EAD044E02868022812D1FFF740FFF0
:100730000F2000F081F801214FF4FA7000F0D6FA92
:100740000F2000F0A5F801214FF4FA7000F0CEFA66
:100750002EE0286803282BD10024532140F2F31007
:1007600000F0C4F80CE02146124800F079FA214666
:10077000114800F075FA0121642000F0B7FA1E3428
:10078000B4F5C87F02DC28680328ECD00CE02146D1
:10079000084800F065FA2146074800F061FA012197
:1007A000642000F0A3FA1E3C14B128680328EED0A0
:1007B00070BD000000200040001C00407047000099
:1007C00070B5002100230F22C4781CB3174C246895
:1007D00004F4E064C4F5E064C4F30721C1F1040447
:1007E000E3B20A4144789C40E1B28478144021434A
:1007F0000C07210E0E4C05786155047804F01F0596
:100800000124AC4005786D11AD0005F1E025C5F877
:10081000004109E0047804F01F050124AC40054DB7
:100820000678761145F8264070BD00000CED00E01A
:1008300000E400E080E100E010B5044664F001004F
:10084000C04320B94FF400710F48FFF7ABFE64F0CE
:100850000200C04320B94FF480610B48FFF7A2FEAD
:1008600064F00400C04320B94FF400510748FFF77B
:1008700099FE64F00800C04320B94FF4804103485A
:10088000FFF790FE10BD000000140240001002406F
:1008900010B5044664F00100C04320B94FF4007164
:1008A0000F48FFF781FE64F00200C04320B94FF407
:1008B00080610B48FFF778FE64F00400C04320B964
:1008C0004FF400510748FFF76FFE64F00800C04383
:1008D00020B94FF480410348FFF766FE10BD0000C9
:1008E00000140240001002407047000030B58BB089
:1008F00005460C460121080200F054F80121202091
:1009000000F040F8092211461C48FFF728FE02209B
:100910008DF828000002099003208DF8290000209E
:100920008DF82A0001208DF82B0009A91348FFF744
:10093000CEFD0795ADF818400020ADF82000ADF8C9
:100940001A0006A90E4800F08DF96020ADF80400E9
:100950000220ADF810000120ADF8060001A90848FA
:1009600000F040F90121064800F030F94FF4007121
:100970000248FFF719FE0BB030BD00000014024022
:100980000020004029B1064A12680243044B1A6055
:1009900004E0034A12688243014B1A60704700006A
:1009A0003038024029B1064A12680243044B1A60EB
:1009B00004E0034A12688243014B1A60704700004A
:1009C0004038024029B1064A12680243044B1A60BB
:1009D00004E0034A12688243014B1A60704700002A
:1009E000443802407047000030B500228B071C0FCE
:1009F0000F2303FA04F20B4B8C1053F8243093436B
:100A0000084C8D1044F8253023468C1053F82430C0
:100A10008C07240F00FA04F42343024C8D1044F891
:100A2000253030BD083801400CB500200190009001
:100A30003448006840F480303249086000BF3148D3
:100A4000006800F4003000900198401C019000986C
:100A500018B90198B0F5A04FF1D12A48006800F408
:100A6000003010B10120009001E0002000900098BB
:100A7000012846D123484030006840F08050214989
:100A8000403108602048006840F440401E4908603A
:100A90001C48083000681B49083108600846006897
:100AA00040F4004008600846006840F4A050086028
:100AB0001648091F0860081F006840F08070091F71
:100AC000086000BF0F48006800F000700028F9D0EF
:100AD00040F205700E4908600A480830006820F0AE
:100AE00003000849083108600846006840F0020029
:100AF000086000BF03480830006800F00C000828B8
:100B0000F8D10CBD00380240007000400854400786
:100B1000003C0240042808D14FF0E021096941F06F
:100B200004014FF0E022116107E04FF0E021096974
:100B300021F004014FF0E02211617047704700007E
:100B400010B51548006840F4700013490860134858
:100B5000006840F001001149086000200F49083189
:100B600008600E4800680E4908400C4908600D48AE
:100B7000091D0860081F006820F48020091F086014
:100B8000002006490C310860FFF74EFF4FF000606F
:100B900001498039086010BD88ED00E0003802404E
:100BA000FFFFF6FE1030002410B56FF00400FFF7D1
:100BB000B1FF15200349087045F20820024908805A
:100BC00010BD0000000000200200002021B10288BA
:100BD00042F00102028004E002884FF6FE731A40E0
:100BE0000280704770B5002400220023058C4FF668
:100BF000FE7635400584028C8388048B4FF68F7512
:100C00002C40B51E2C400D882C43751E2A408D8922
:100C10002A434D882A43104DA84202D00F4DA842C6
:100C200013D14FF6F7752A40CD892A434FF6FB754D
:100C30002A408D882A434FF6FF652B404FF6FF551B
:100C40002B400D8A2B434D8A2B43838004838D6870
:100C50004563028470BD00000000014000040140B3
:100C60004163704700220288184B98420ED0184BFF
:100C700098420BD0B0F1804F08D0164B984205D067
:100C8000154B984202D0154B984204D14FF68F7302
:100C90001A404B881A43124B984207D0114B984286
:100CA00004D04FF6FF431A400B891A4302804B6869
:100CB000C3620B880385054B984202D0044B9842CF
:100CC00001D18B7A038601238382704700000140A3
:100CD000000401400004004000080040000C0040F7
:100CE000001000400014004000BFFEE770B505464C
:100CF0000C46FFF759FF24B1012C06D0022C0CD171
:100D000007E0284600F030F807E0284600F008F831
:100D100003E0284600F038F800BF00BF70BD0000B7
:100D20000021104A128842434FF0E0235A6100220A
:100D30009A611A46126942F001021A6100BF4FF02F
:100D4000E022116901F48032002AF8D04FF0E0224D
:100D5000126922F001024FF0E0231A6100229A6129
:100D6000704700000200002010B5044608E04FF470
:100D7000FA70FFF7D5FF4FF4FA70FFF7D1FF641E4A
:100D8000002CF4D110BD00000021104A127842431B
:100D90004FF0E0235A6100229A611A46126942F02C
:100DA00001021A6100BF4FF0E022116901F48032A4
:100DB000002AF8D04FF0E022126922F001024FF031
:100DC000E0231A6100229A617047000000000020B1
:100DD00000BFFFF73BFCFFF719FCFFF711FB02E038
:100DE0000148FFF763FCFBE7040000204FF0407070
:100DF000E1EE100A70470000180E00080000002005
:100E000008000000C4010008200E000808000020AF
:100E100060060000E0010008000000000000000083
:040000050800018965
:00000001FF
